{
  "_format": "hh-sol-artifact-1",
  "contractName": "NFT",
  "sourceName": "contracts/NFT.sol",
  "abi": [
    {
      "inputs": [],
      "stateMutability": "nonpayable",
      "type": "constructor"
    },
    {
      "anonymous": false,
      "inputs": [
        {
          "indexed": true,
          "internalType": "address",
          "name": "owner",
          "type": "address"
        },
        {
          "indexed": true,
          "internalType": "address",
          "name": "approved",
          "type": "address"
        },
        {
          "indexed": true,
          "internalType": "uint256",
          "name": "tokenId",
          "type": "uint256"
        }
      ],
      "name": "Approval",
      "type": "event"
    },
    {
      "anonymous": false,
      "inputs": [
        {
          "indexed": true,
          "internalType": "address",
          "name": "owner",
          "type": "address"
        },
        {
          "indexed": true,
          "internalType": "address",
          "name": "operator",
          "type": "address"
        },
        {
          "indexed": false,
          "internalType": "bool",
          "name": "approved",
          "type": "bool"
        }
      ],
      "name": "ApprovalForAll",
      "type": "event"
    },
    {
      "anonymous": false,
      "inputs": [
        {
          "indexed": true,
          "internalType": "address",
          "name": "from",
          "type": "address"
        },
        {
          "indexed": true,
          "internalType": "address",
          "name": "to",
          "type": "address"
        },
        {
          "indexed": true,
          "internalType": "uint256",
          "name": "tokenId",
          "type": "uint256"
        }
      ],
      "name": "Transfer",
      "type": "event"
    },
    {
      "inputs": [
        {
          "internalType": "address",
          "name": "to",
          "type": "address"
        },
        {
          "internalType": "uint256",
          "name": "tokenId",
          "type": "uint256"
        }
      ],
      "name": "approve",
      "outputs": [],
      "stateMutability": "nonpayable",
      "type": "function"
    },
    {
      "inputs": [
        {
          "internalType": "address",
          "name": "owner",
          "type": "address"
        }
      ],
      "name": "balanceOf",
      "outputs": [
        {
          "internalType": "uint256",
          "name": "",
          "type": "uint256"
        }
      ],
      "stateMutability": "view",
      "type": "function"
    },
    {
      "inputs": [],
      "name": "baseTokenURI",
      "outputs": [
        {
          "internalType": "string",
          "name": "",
          "type": "string"
        }
      ],
      "stateMutability": "view",
      "type": "function"
    },
    {
      "inputs": [
        {
          "internalType": "uint256",
          "name": "tokenId",
          "type": "uint256"
        }
      ],
      "name": "getApproved",
      "outputs": [
        {
          "internalType": "address",
          "name": "",
          "type": "address"
        }
      ],
      "stateMutability": "view",
      "type": "function"
    },
    {
      "inputs": [
        {
          "internalType": "address",
          "name": "owner",
          "type": "address"
        },
        {
          "internalType": "address",
          "name": "operator",
          "type": "address"
        }
      ],
      "name": "isApprovedForAll",
      "outputs": [
        {
          "internalType": "bool",
          "name": "",
          "type": "bool"
        }
      ],
      "stateMutability": "view",
      "type": "function"
    },
    {
      "inputs": [
        {
          "internalType": "address",
          "name": "recipient",
          "type": "address"
        }
      ],
      "name": "mintTo",
      "outputs": [
        {
          "internalType": "uint256",
          "name": "",
          "type": "uint256"
        }
      ],
      "stateMutability": "nonpayable",
      "type": "function"
    },
    {
      "inputs": [],
      "name": "name",
      "outputs": [
        {
          "internalType": "string",
          "name": "",
          "type": "string"
        }
      ],
      "stateMutability": "view",
      "type": "function"
    },
    {
      "inputs": [
        {
          "internalType": "uint256",
          "name": "tokenId",
          "type": "uint256"
        }
      ],
      "name": "ownerOf",
      "outputs": [
        {
          "internalType": "address",
          "name": "",
          "type": "address"
        }
      ],
      "stateMutability": "view",
      "type": "function"
    },
    {
      "inputs": [
        {
          "internalType": "address",
          "name": "from",
          "type": "address"
        },
        {
          "internalType": "address",
          "name": "to",
          "type": "address"
        },
        {
          "internalType": "uint256",
          "name": "tokenId",
          "type": "uint256"
        }
      ],
      "name": "safeTransferFrom",
      "outputs": [],
      "stateMutability": "nonpayable",
      "type": "function"
    },
    {
      "inputs": [
        {
          "internalType": "address",
          "name": "from",
          "type": "address"
        },
        {
          "internalType": "address",
          "name": "to",
          "type": "address"
        },
        {
          "internalType": "uint256",
          "name": "tokenId",
          "type": "uint256"
        },
        {
          "internalType": "bytes",
          "name": "_data",
          "type": "bytes"
        }
      ],
      "name": "safeTransferFrom",
      "outputs": [],
      "stateMutability": "nonpayable",
      "type": "function"
    },
    {
      "inputs": [
        {
          "internalType": "address",
          "name": "operator",
          "type": "address"
        },
        {
          "internalType": "bool",
          "name": "approved",
          "type": "bool"
        }
      ],
      "name": "setApprovalForAll",
      "outputs": [],
      "stateMutability": "nonpayable",
      "type": "function"
    },
    {
      "inputs": [
        {
          "internalType": "string",
          "name": "_baseTokenURI",
          "type": "string"
        }
      ],
      "name": "setBaseTokenURI",
      "outputs": [],
      "stateMutability": "nonpayable",
      "type": "function"
    },
    {
      "inputs": [
        {
          "internalType": "bytes4",
          "name": "interfaceId",
          "type": "bytes4"
        }
      ],
      "name": "supportsInterface",
      "outputs": [
        {
          "internalType": "bool",
          "name": "",
          "type": "bool"
        }
      ],
      "stateMutability": "view",
      "type": "function"
    },
    {
      "inputs": [],
      "name": "symbol",
      "outputs": [
        {
          "internalType": "string",
          "name": "",
          "type": "string"
        }
      ],
      "stateMutability": "view",
      "type": "function"
    },
    {
      "inputs": [
        {
          "internalType": "uint256",
          "name": "tokenId",
          "type": "uint256"
        }
      ],
      "name": "tokenURI",
      "outputs": [
        {
          "internalType": "string",
          "name": "",
          "type": "string"
        }
      ],
      "stateMutability": "view",
      "type": "function"
    },
    {
      "inputs": [
        {
          "internalType": "address",
          "name": "from",
          "type": "address"
        },
        {
          "internalType": "address",
          "name": "to",
          "type": "address"
        },
        {
          "internalType": "uint256",
          "name": "tokenId",
          "type": "uint256"
        }
      ],
      "name": "transferFrom",
      "outputs": [],
      "stateMutability": "nonpayable",
      "type": "function"
    }
  ],
  "bytecode": "0x60806040523480156200001157600080fd5b506040518060400160405280600b81526020017f4e46545475746f7269616c0000000000000000000000000000000000000000008152506040518060400160405280600381526020017f4e46540000000000000000000000000000000000000000000000000000000000815250816000908051906020019062000096929190620000e0565b508060019080519060200190620000af929190620000e0565b5050506040518060200160405280600081525060079080519060200190620000d9929190620000e0565b50620001f5565b828054620000ee9062000190565b90600052602060002090601f0160209004810192826200011257600085556200015e565b82601f106200012d57805160ff19168380011785556200015e565b828001600101855582156200015e579182015b828111156200015d57825182559160200191906001019062000140565b5b5090506200016d919062000171565b5090565b5b808211156200018c57600081600090555060010162000172565b5090565b60006002820490506001821680620001a957607f821691505b60208210811415620001c057620001bf620001c6565b5b50919050565b7f4e487b7100000000000000000000000000000000000000000000000000000000600052602260045260246000fd5b6129cb80620002056000396000f3fe608060405234801561001057600080fd5b50600436106101005760003560e01c806370a0823111610097578063b88d4fde11610066578063b88d4fde146102bd578063c87b56dd146102d9578063d547cfb714610309578063e985e9c51461032757610100565b806370a0823114610223578063755edd171461025357806395d89b4114610283578063a22cb465146102a157610100565b806323b872dd116100d357806323b872dd1461019f57806330176e13146101bb57806342842e0e146101d75780636352211e146101f357610100565b806301ffc9a71461010557806306fdde0314610135578063081812fc14610153578063095ea7b314610183575b600080fd5b61011f600480360381019061011a9190611c2a565b610357565b60405161012c9190612363565b60405180910390f35b61013d610439565b60405161014a919061237e565b60405180910390f35b61016d60048036038101906101689190611cbd565b6104cb565b60405161017a91906122fc565b60405180910390f35b61019d60048036038101906101989190611bee565b610550565b005b6101b960048036038101906101b49190611ae8565b610668565b005b6101d560048036038101906101d09190611c7c565b6106c8565b005b6101f160048036038101906101ec9190611ae8565b6106e2565b005b61020d60048036038101906102089190611cbd565b610702565b60405161021a91906122fc565b60405180910390f35b61023d60048036038101906102389190611a83565b6107b4565b60405161024a9190612560565b60405180910390f35b61026d60048036038101906102689190611a83565b61086c565b60405161027a9190612560565b60405180910390f35b61028b610899565b604051610298919061237e565b60405180910390f35b6102bb60048036038101906102b69190611bb2565b61092b565b005b6102d760048036038101906102d29190611b37565b610941565b005b6102f360048036038101906102ee9190611cbd565b6109a3565b604051610300919061237e565b60405180910390f35b610311610a4a565b60405161031e919061237e565b60405180910390f35b610341600480360381019061033c9190611aac565b610ad8565b60405161034e9190612363565b60405180910390f35b60007f80ac58cd000000000000000000000000000000000000000000000000000000007bffffffffffffffffffffffffffffffffffffffffffffffffffffffff1916827bffffffffffffffffffffffffffffffffffffffffffffffffffffffff1916148061042257507f5b5e139f000000000000000000000000000000000000000000000000000000007bffffffffffffffffffffffffffffffffffffffffffffffffffffffff1916827bffffffffffffffffffffffffffffffffffffffffffffffffffffffff1916145b80610432575061043182610b6c565b5b9050919050565b606060008054610448906127c0565b80601f0160208091040260200160405190810160405280929190818152602001828054610474906127c0565b80156104c15780601f10610496576101008083540402835291602001916104c1565b820191906000526020600020905b8154815290600101906020018083116104a457829003601f168201915b5050505050905090565b60006104d682610bd6565b610515576040517f08c379a000000000000000000000000000000000000000000000000000000000815260040161050c906124e0565b60405180910390fd5b6004600083815260200190815260200160002060009054906101000a900473ffffffffffffffffffffffffffffffffffffffff169050919050565b600061055b82610702565b90508073ffffffffffffffffffffffffffffffffffffffff168373ffffffffffffffffffffffffffffffffffffffff1614156105cc576040517f08c379a00000000000000000000000000000000000000000000000000000000081526004016105c390612520565b60405180910390fd5b8073ffffffffffffffffffffffffffffffffffffffff166105eb610c42565b73ffffffffffffffffffffffffffffffffffffffff16148061061a575061061981610614610c42565b610ad8565b5b610659576040517f08c379a000000000000000000000000000000000000000000000000000000000815260040161065090612460565b60405180910390fd5b6106638383610c4a565b505050565b610679610673610c42565b82610d03565b6106b8576040517f08c379a00000000000000000000000000000000000000000000000000000000081526004016106af90612540565b60405180910390fd5b6106c3838383610de1565b505050565b80600790805190602001906106de9291906118a7565b5050565b6106fd83838360405180602001604052806000815250610941565b505050565b6000806002600084815260200190815260200160002060009054906101000a900473ffffffffffffffffffffffffffffffffffffffff169050600073ffffffffffffffffffffffffffffffffffffffff168173ffffffffffffffffffffffffffffffffffffffff1614156107ab576040517f08c379a00000000000000000000000000000000000000000000000000000000081526004016107a2906124a0565b60405180910390fd5b80915050919050565b60008073ffffffffffffffffffffffffffffffffffffffff168273ffffffffffffffffffffffffffffffffffffffff161415610825576040517f08c379a000000000000000000000000000000000000000000000000000000000815260040161081c90612480565b60405180910390fd5b600360008373ffffffffffffffffffffffffffffffffffffffff1673ffffffffffffffffffffffffffffffffffffffff168152602001908152602001600020549050919050565b60006108786006611048565b6000610884600661105e565b9050610890838261106c565b80915050919050565b6060600180546108a8906127c0565b80601f01602080910402602001604051908101604052809291908181526020018280546108d4906127c0565b80156109215780601f106108f657610100808354040283529160200191610921565b820191906000526020600020905b81548152906001019060200180831161090457829003601f168201915b5050505050905090565b61093d610936610c42565b838361108a565b5050565b61095261094c610c42565b83610d03565b610991576040517f08c379a000000000000000000000000000000000000000000000000000000000815260040161098890612540565b60405180910390fd5b61099d848484846111f7565b50505050565b60606109ae82610bd6565b6109ed576040517f08c379a00000000000000000000000000000000000000000000000000000000081526004016109e490612500565b60405180910390fd5b60006109f7611253565b90506000815111610a175760405180602001604052806000815250610a42565b80610a21846112e5565b604051602001610a329291906122d8565b6040516020818303038152906040525b915050919050565b60078054610a57906127c0565b80601f0160208091040260200160405190810160405280929190818152602001828054610a83906127c0565b8015610ad05780601f10610aa557610100808354040283529160200191610ad0565b820191906000526020600020905b815481529060010190602001808311610ab357829003601f168201915b505050505081565b6000600560008473ffffffffffffffffffffffffffffffffffffffff1673ffffffffffffffffffffffffffffffffffffffff16815260200190815260200160002060008373ffffffffffffffffffffffffffffffffffffffff1673ffffffffffffffffffffffffffffffffffffffff16815260200190815260200160002060009054906101000a900460ff16905092915050565b60007f01ffc9a7000000000000000000000000000000000000000000000000000000007bffffffffffffffffffffffffffffffffffffffffffffffffffffffff1916827bffffffffffffffffffffffffffffffffffffffffffffffffffffffff1916149050919050565b60008073ffffffffffffffffffffffffffffffffffffffff166002600084815260200190815260200160002060009054906101000a900473ffffffffffffffffffffffffffffffffffffffff1673ffffffffffffffffffffffffffffffffffffffff1614159050919050565b600033905090565b816004600083815260200190815260200160002060006101000a81548173ffffffffffffffffffffffffffffffffffffffff021916908373ffffffffffffffffffffffffffffffffffffffff160217905550808273ffffffffffffffffffffffffffffffffffffffff16610cbd83610702565b73ffffffffffffffffffffffffffffffffffffffff167f8c5be1e5ebec7d5bd14f71427d1e84f3dd0314c0f7b2291e5b200ac8c7c3b92560405160405180910390a45050565b6000610d0e82610bd6565b610d4d576040517f08c379a0000000000000000000000000000000000000000000000000000000008152600401610d4490612440565b60405180910390fd5b6000610d5883610702565b90508073ffffffffffffffffffffffffffffffffffffffff168473ffffffffffffffffffffffffffffffffffffffff161480610dc757508373ffffffffffffffffffffffffffffffffffffffff16610daf846104cb565b73ffffffffffffffffffffffffffffffffffffffff16145b80610dd85750610dd78185610ad8565b5b91505092915050565b8273ffffffffffffffffffffffffffffffffffffffff16610e0182610702565b73ffffffffffffffffffffffffffffffffffffffff1614610e57576040517f08c379a0000000000000000000000000000000000000000000000000000000008152600401610e4e906123c0565b60405180910390fd5b600073ffffffffffffffffffffffffffffffffffffffff168273ffffffffffffffffffffffffffffffffffffffff161415610ec7576040517f08c379a0000000000000000000000000000000000000000000000000000000008152600401610ebe90612400565b60405180910390fd5b610ed2838383611492565b610edd600082610c4a565b6001600360008573ffffffffffffffffffffffffffffffffffffffff1673ffffffffffffffffffffffffffffffffffffffff1681526020019081526020016000206000828254610f2d91906126d6565b925050819055506001600360008473ffffffffffffffffffffffffffffffffffffffff1673ffffffffffffffffffffffffffffffffffffffff1681526020019081526020016000206000828254610f84919061264f565b92505081905550816002600083815260200190815260200160002060006101000a81548173ffffffffffffffffffffffffffffffffffffffff021916908373ffffffffffffffffffffffffffffffffffffffff160217905550808273ffffffffffffffffffffffffffffffffffffffff168473ffffffffffffffffffffffffffffffffffffffff167fddf252ad1be2c89b69c2b068fc378daa952ba7f163c4a11628f55a4df523b3ef60405160405180910390a4611043838383611497565b505050565b6001816000016000828254019250508190555050565b600081600001549050919050565b61108682826040518060200160405280600081525061149c565b5050565b8173ffffffffffffffffffffffffffffffffffffffff168373ffffffffffffffffffffffffffffffffffffffff1614156110f9576040517f08c379a00000000000000000000000000000000000000000000000000000000081526004016110f090612420565b60405180910390fd5b80600560008573ffffffffffffffffffffffffffffffffffffffff1673ffffffffffffffffffffffffffffffffffffffff16815260200190815260200160002060008473ffffffffffffffffffffffffffffffffffffffff1673ffffffffffffffffffffffffffffffffffffffff16815260200190815260200160002060006101000a81548160ff0219169083151502179055508173ffffffffffffffffffffffffffffffffffffffff168373ffffffffffffffffffffffffffffffffffffffff167f17307eab39ab6107e8899845ad3d59bd9653f200f220920489ca2b5937696c31836040516111ea9190612363565b60405180910390a3505050565b611202848484610de1565b61120e848484846114f7565b61124d576040517f08c379a0000000000000000000000000000000000000000000000000000000008152600401611244906123a0565b60405180910390fd5b50505050565b606060078054611262906127c0565b80601f016020809104026020016040519081016040528092919081815260200182805461128e906127c0565b80156112db5780601f106112b0576101008083540402835291602001916112db565b820191906000526020600020905b8154815290600101906020018083116112be57829003601f168201915b5050505050905090565b6060600082141561132d576040518060400160405280600181526020017f3000000000000000000000000000000000000000000000000000000000000000815250905061148d565b600082905060005b6000821461135f578080611348906127f2565b915050600a8261135891906126a5565b9150611335565b60008167ffffffffffffffff8111156113a1577f4e487b7100000000000000000000000000000000000000000000000000000000600052604160045260246000fd5b6040519080825280601f01601f1916602001820160405280156113d35781602001600182028036833780820191505090505b5090505b60008514611486576001826113ec91906126d6565b9150600a856113fb919061283b565b6030611407919061264f565b60f81b818381518110611443577f4e487b7100000000000000000000000000000000000000000000000000000000600052603260045260246000fd5b60200101907effffffffffffffffffffffffffffffffffffffffffffffffffffffffffffff1916908160001a905350600a8561147f91906126a5565b94506113d7565b8093505050505b919050565b505050565b505050565b6114a6838361168e565b6114b360008484846114f7565b6114f2576040517f08c379a00000000000000000000000000000000000000000000000000000000081526004016114e9906123a0565b60405180910390fd5b505050565b60006115188473ffffffffffffffffffffffffffffffffffffffff16611868565b15611681578373ffffffffffffffffffffffffffffffffffffffff1663150b7a02611541610c42565b8786866040518563ffffffff1660e01b81526004016115639493929190612317565b602060405180830381600087803b15801561157d57600080fd5b505af19250505080156115ae57506040513d601f19601f820116820180604052508101906115ab9190611c53565b60015b611631573d80600081146115de576040519150601f19603f3d011682016040523d82523d6000602084013e6115e3565b606091505b50600081511415611629576040517f08c379a0000000000000000000000000000000000000000000000000000000008152600401611620906123a0565b60405180910390fd5b805181602001fd5b63150b7a0260e01b7bffffffffffffffffffffffffffffffffffffffffffffffffffffffff1916817bffffffffffffffffffffffffffffffffffffffffffffffffffffffff191614915050611686565b600190505b949350505050565b600073ffffffffffffffffffffffffffffffffffffffff168273ffffffffffffffffffffffffffffffffffffffff1614156116fe576040517f08c379a00000000000000000000000000000000000000000000000000000000081526004016116f5906124c0565b60405180910390fd5b61170781610bd6565b15611747576040517f08c379a000000000000000000000000000000000000000000000000000000000815260040161173e906123e0565b60405180910390fd5b61175360008383611492565b6001600360008473ffffffffffffffffffffffffffffffffffffffff1673ffffffffffffffffffffffffffffffffffffffff16815260200190815260200160002060008282546117a3919061264f565b92505081905550816002600083815260200190815260200160002060006101000a81548173ffffffffffffffffffffffffffffffffffffffff021916908373ffffffffffffffffffffffffffffffffffffffff160217905550808273ffffffffffffffffffffffffffffffffffffffff16600073ffffffffffffffffffffffffffffffffffffffff167fddf252ad1be2c89b69c2b068fc378daa952ba7f163c4a11628f55a4df523b3ef60405160405180910390a461186460008383611497565b5050565b6000808273ffffffffffffffffffffffffffffffffffffffff16803b806020016040519081016040528181526000908060200190933c51119050919050565b8280546118b3906127c0565b90600052602060002090601f0160209004810192826118d5576000855561191c565b82601f106118ee57805160ff191683800117855561191c565b8280016001018555821561191c579182015b8281111561191b578251825591602001919060010190611900565b5b509050611929919061192d565b5090565b5b8082111561194657600081600090555060010161192e565b5090565b600061195d611958846125ac565b61257b565b90508281526020810184848401111561197557600080fd5b61198084828561277e565b509392505050565b600061199b611996846125dc565b61257b565b9050828152602081018484840111156119b357600080fd5b6119be84828561277e565b509392505050565b6000813590506119d581612939565b92915050565b6000813590506119ea81612950565b92915050565b6000813590506119ff81612967565b92915050565b600081519050611a1481612967565b92915050565b600082601f830112611a2b57600080fd5b8135611a3b84826020860161194a565b91505092915050565b600082601f830112611a5557600080fd5b8135611a65848260208601611988565b91505092915050565b600081359050611a7d8161297e565b92915050565b600060208284031215611a9557600080fd5b6000611aa3848285016119c6565b91505092915050565b60008060408385031215611abf57600080fd5b6000611acd858286016119c6565b9250506020611ade858286016119c6565b9150509250929050565b600080600060608486031215611afd57600080fd5b6000611b0b868287016119c6565b9350506020611b1c868287016119c6565b9250506040611b2d86828701611a6e565b9150509250925092565b60008060008060808587031215611b4d57600080fd5b6000611b5b878288016119c6565b9450506020611b6c878288016119c6565b9350506040611b7d87828801611a6e565b925050606085013567ffffffffffffffff811115611b9a57600080fd5b611ba687828801611a1a565b91505092959194509250565b60008060408385031215611bc557600080fd5b6000611bd3858286016119c6565b9250506020611be4858286016119db565b9150509250929050565b60008060408385031215611c0157600080fd5b6000611c0f858286016119c6565b9250506020611c2085828601611a6e565b9150509250929050565b600060208284031215611c3c57600080fd5b6000611c4a848285016119f0565b91505092915050565b600060208284031215611c6557600080fd5b6000611c7384828501611a05565b91505092915050565b600060208284031215611c8e57600080fd5b600082013567ffffffffffffffff811115611ca857600080fd5b611cb484828501611a44565b91505092915050565b600060208284031215611ccf57600080fd5b6000611cdd84828501611a6e565b91505092915050565b611cef8161270a565b82525050565b611cfe8161271c565b82525050565b6000611d0f8261260c565b611d198185612622565b9350611d2981856020860161278d565b611d3281612928565b840191505092915050565b6000611d4882612617565b611d528185612633565b9350611d6281856020860161278d565b611d6b81612928565b840191505092915050565b6000611d8182612617565b611d8b8185612644565b9350611d9b81856020860161278d565b80840191505092915050565b6000611db4603283612633565b91507f4552433732313a207472616e7366657220746f206e6f6e20455243373231526560008301527f63656976657220696d706c656d656e74657200000000000000000000000000006020830152604082019050919050565b6000611e1a602583612633565b91507f4552433732313a207472616e736665722066726f6d20696e636f72726563742060008301527f6f776e65720000000000000000000000000000000000000000000000000000006020830152604082019050919050565b6000611e80601c83612633565b91507f4552433732313a20746f6b656e20616c7265616479206d696e746564000000006000830152602082019050919050565b6000611ec0602483612633565b91507f4552433732313a207472616e7366657220746f20746865207a65726f2061646460008301527f72657373000000000000000000000000000000000000000000000000000000006020830152604082019050919050565b6000611f26601983612633565b91507f4552433732313a20617070726f766520746f2063616c6c6572000000000000006000830152602082019050919050565b6000611f66602c83612633565b91507f4552433732313a206f70657261746f7220717565727920666f72206e6f6e657860008301527f697374656e7420746f6b656e00000000000000000000000000000000000000006020830152604082019050919050565b6000611fcc603883612633565b91507f4552433732313a20617070726f76652063616c6c6572206973206e6f74206f7760008301527f6e6572206e6f7220617070726f76656420666f7220616c6c00000000000000006020830152604082019050919050565b6000612032602a83612633565b91507f4552433732313a2062616c616e636520717565727920666f7220746865207a6560008301527f726f2061646472657373000000000000000000000000000000000000000000006020830152604082019050919050565b6000612098602983612633565b91507f4552433732313a206f776e657220717565727920666f72206e6f6e657869737460008301527f656e7420746f6b656e00000000000000000000000000000000000000000000006020830152604082019050919050565b60006120fe602083612633565b91507f4552433732313a206d696e7420746f20746865207a65726f20616464726573736000830152602082019050919050565b600061213e602c83612633565b91507f4552433732313a20617070726f76656420717565727920666f72206e6f6e657860008301527f697374656e7420746f6b656e00000000000000000000000000000000000000006020830152604082019050919050565b60006121a4602f83612633565b91507f4552433732314d657461646174613a2055524920717565727920666f72206e6f60008301527f6e6578697374656e7420746f6b656e00000000000000000000000000000000006020830152604082019050919050565b600061220a602183612633565b91507f4552433732313a20617070726f76616c20746f2063757272656e74206f776e6560008301527f72000000000000000000000000000000000000000000000000000000000000006020830152604082019050919050565b6000612270603183612633565b91507f4552433732313a207472616e736665722063616c6c6572206973206e6f74206f60008301527f776e6572206e6f7220617070726f7665640000000000000000000000000000006020830152604082019050919050565b6122d281612774565b82525050565b60006122e48285611d76565b91506122f08284611d76565b91508190509392505050565b60006020820190506123116000830184611ce6565b92915050565b600060808201905061232c6000830187611ce6565b6123396020830186611ce6565b61234660408301856122c9565b81810360608301526123588184611d04565b905095945050505050565b60006020820190506123786000830184611cf5565b92915050565b600060208201905081810360008301526123988184611d3d565b905092915050565b600060208201905081810360008301526123b981611da7565b9050919050565b600060208201905081810360008301526123d981611e0d565b9050919050565b600060208201905081810360008301526123f981611e73565b9050919050565b6000602082019050818103600083015261241981611eb3565b9050919050565b6000602082019050818103600083015261243981611f19565b9050919050565b6000602082019050818103600083015261245981611f59565b9050919050565b6000602082019050818103600083015261247981611fbf565b9050919050565b6000602082019050818103600083015261249981612025565b9050919050565b600060208201905081810360008301526124b98161208b565b9050919050565b600060208201905081810360008301526124d9816120f1565b9050919050565b600060208201905081810360008301526124f981612131565b9050919050565b6000602082019050818103600083015261251981612197565b9050919050565b60006020820190508181036000830152612539816121fd565b9050919050565b6000602082019050818103600083015261255981612263565b9050919050565b600060208201905061257560008301846122c9565b92915050565b6000604051905081810181811067ffffffffffffffff821117156125a2576125a16128f9565b5b8060405250919050565b600067ffffffffffffffff8211156125c7576125c66128f9565b5b601f19601f8301169050602081019050919050565b600067ffffffffffffffff8211156125f7576125f66128f9565b5b601f19601f8301169050602081019050919050565b600081519050919050565b600081519050919050565b600082825260208201905092915050565b600082825260208201905092915050565b600081905092915050565b600061265a82612774565b915061266583612774565b9250827fffffffffffffffffffffffffffffffffffffffffffffffffffffffffffffffff0382111561269a5761269961286c565b5b828201905092915050565b60006126b082612774565b91506126bb83612774565b9250826126cb576126ca61289b565b5b828204905092915050565b60006126e182612774565b91506126ec83612774565b9250828210156126ff576126fe61286c565b5b828203905092915050565b600061271582612754565b9050919050565b60008115159050919050565b60007fffffffff0000000000000000000000000000000000000000000000000000000082169050919050565b600073ffffffffffffffffffffffffffffffffffffffff82169050919050565b6000819050919050565b82818337600083830152505050565b60005b838110156127ab578082015181840152602081019050612790565b838111156127ba576000848401525b50505050565b600060028204905060018216806127d857607f821691505b602082108114156127ec576127eb6128ca565b5b50919050565b60006127fd82612774565b91507fffffffffffffffffffffffffffffffffffffffffffffffffffffffffffffffff8214156128305761282f61286c565b5b600182019050919050565b600061284682612774565b915061285183612774565b9250826128615761286061289b565b5b828206905092915050565b7f4e487b7100000000000000000000000000000000000000000000000000000000600052601160045260246000fd5b7f4e487b7100000000000000000000000000000000000000000000000000000000600052601260045260246000fd5b7f4e487b7100000000000000000000000000000000000000000000000000000000600052602260045260246000fd5b7f4e487b7100000000000000000000000000000000000000000000000000000000600052604160045260246000fd5b6000601f19601f8301169050919050565b6129428161270a565b811461294d57600080fd5b50565b6129598161271c565b811461296457600080fd5b50565b61297081612728565b811461297b57600080fd5b50565b61298781612774565b811461299257600080fd5b5056fea264697066735822122010a24448d1e44c91ec89a0848579f6a1050e3356a356537e304ea942b68c413164736f6c63430008000033",
  "linkReferences": {},
  "deployedLinkReferences": {}
}